:100000000C94D5010C9406020C9406020C94060282
:100010000C9406020C9406020C9406020C94060240
:100020000C9406020C9448060C9448060C9448065E
:100030000C9406020C9406020C9406020C94060220
:100040000C9406020C941A060C9406020C940602F8
:100050000C9406020C9406020C9406020C94930D68
:100060000C9406020C945A050C9430050C9406026C
:100070000C9406020C9406020C9406020C940602E0
:100080000C94EC050C9406020C9406020C940602E7
:100090000C9406020C9406020C9406020C940602C0
:1000A0000C9406020C9406020C94BE050C940602F5
:1000B0000C9406020C9406020C9406020C94900513
:1000C0000C9406020C9406020C9406020C94060290
:1000D0000C9406020C9406020C9406020C94060280
:1000E0000C9406028B0C8E0C7D0C810C850CC50CBF
:1000F000920C960C9C0CA00CA40CAA0CAE0CB20C8E
:10010000C50CB80CBC0CC00C0C94A00C0C94B80C16
:100110000C94750F0C94AA0C0C9497030C94AE0CD1
:100120000C94F60D0C9412030C947D0C0C94B20CF0
:100130000C9439020C94960C0C94C00C0C94BC0CCE
:100140000C94A40C0C9470020C948E0C0C94B903B7
:100150000C947F030C9408020C9417020C9415174E
:100160000C942A030C949C0C0C94C50C0C94B702B0
:100170000C942B020C94810C0C94850C0C94C004F0
:100180000C948B0C0C942B030C94920C00407A1062
:10019000F35A00A0724E18090010A5D4E80000E838
:1001A0007648170000E40B54020000CA9A3B000096
:1001B00000E1F505000080969800000040420F0025
:1001C0000000A08601000000102700000000E803E6
:1001D000000000006400000000000A0000000000B1
:1001E0000100000000002C76D888DC674F0823DF70
:1001F000C1DFAE59E1B1B796E5E3E453C63AE65143
:10020000997696E8E6C28426EB898C9B62ED407C69
:100210006FFCEFBC9C9F40F2BAA56FA5F490055A05
:100220002AF75C936B6CF9676DC11BFCE0E40D472A
:10023000FEF520E6B500D0ED902E0300943577054D
:100240000080841E080000204E0A000000C80C3305
:100250003333330F986E12831141EF8D2114893B94
:10026000E65516CFFEE6DB18D1844B381BF77C1D14
:10027000901DA4BBE424203284725E228100C9F167
:1002800024ECA1E53D2700002100240027002A00DE
:100290002D003000330001010000040107010A01B4
:1002A00000000A0B02090C0D0E08070304010000F0
:1002B000000000000000000000000000000000003E
:1002C00000000000000000000000000012111000FB
:1002D000000000000000000000000000000000001E
:1002E00000000000000000002200250028002B0074
:1002F0002E003100340002010000050108010B014D
:10030000000020002300260029002C002F003200CE
:1003100000010000030106010901050505050705A7
:1003200008080808020202020A0A08080404040471
:10033000010101010101010103030303030303039D
:10034000040707070C0C0C0C0C0C0C0C020202022C
:1003500006060606060606060B0B0B0B0B0B0B0B15
:1003600001021020200808102040102040800201C7
:1003700002010804020101020408102040808040AC
:1003800020100804020180040201804020100804AB
:100390000201080402010102040810204080010249
:1003A0000408102040801517750F11241FBECFEFD1
:1003B000D1E2DEBFCDBF00E00CBF13E0A0E0B2E0B1
:1003C000E2E9FFE300E00BBF02C007900D92A0320C
:1003D000B107D9F725E0A0E2B3E001C01D92A23039
:1003E000B207E1F711E0C4EDD1E000E006C02197CB
:1003F0000109802FFE010E94671DC33DD10780E0E7
:100400000807A9F70E947F0F0C94B71F0C940000F7
:10041000FC01538D448D252F30E0842F90E0821B0A
:10042000930B541710F0CF96089501970895FC018F
:10043000918D828D981761F0828DDF01A80FB11D1B
:100440005D968C91928D9F5F9F73928F90E008953F
:100450008FEF9FEF0895FC01918D828D981731F0F9
:10046000828DE80FF11D858D90E008958FEF9FEF4D
:100470000895FC01918D228D892F90E0805C9F4F23
:10048000821B91098F739927089589E993E00E944F
:10049000390221E0892B09F420E0822F0895FC0124
:1004A000848DDF01A80FB11DA35ABF4F2C91848DFD
:1004B00090E001968F739927848FA689B7892C9332
:1004C000A089B1898C9180648C93938D848D9813CD
:1004D00006C00288F389E02D80818F7D8083089596
:1004E000EF92FF920F931F93CF93DF93EC0181E084
:1004F000888F9B8D8C8D981305C0E889F989808140
:1005000085FD24C0F62E0B8D10E00F5F1F4F0F737B
:100510001127E02E8C8DE8120CC00FB607FCFACF25
:10052000E889F989808185FFF5CFCE010E944F02CD
:10053000F1CF8B8DFE01E80FF11DE35AFF4FF082E2
:100540000B8FEA89FB898081806207C0EE89FF8971
:100550006083E889F98980818064808381E090E00C
:10056000DF91CF911F910F91FF90EF900895CF935E
:10057000DF93EC01888D8823C9F0EA89FB898081AB
:1005800085FD05C0A889B9898C9186FD0FC00FB67D
:1005900007FCF5CF808185FFF2CFA889B9898C91BE
:1005A00085FFEDCFCE010E944F02E7CFDF91CF91C3
:1005B000089580E090E0892B21F00E94450281118E
:1005C00025C080E090E0892B41F080E090E0892B0D
:1005D00021F00E94000081111CC080E090E0892B76
:1005E00041F080E090E0892B21F00E940000811111
:1005F00013C080E090E0892BA1F080E090E0892B8F
:1006000081F00E94000081110AC008950E9400003C
:10061000D8CF0E940000E1CF0E940000EACF0C94E6
:100620000000089520917203309173032817390751
:1006300071F49091700380917103981741F0E091EB
:100640007003F0E0E45DFC4F808190E008958FEF4F
:100650009FEF089508951F93CF93DF93DC015C967D
:100660002D913C915D972115310539F481E090E0A1
:1006700013969C938E9312973DC05196ED91FC91E9
:10068000529750969C915097892F80951FB75E96F0
:100690004C915E9741FB772770F941FD6095F89486
:1006A0004081772311F0492B01C048234083E901A1
:1006B0002197F1F748E0508160FF02C0592B01C03B
:1006C00058235083E9012197F1F76695415099F736
:1006D000772321F090818923808303C08081982B28
:1006E00090831FBF5C968D919C915D970197F1F768
:1006F00021E030E0C901DF91CF911F910895209151
:100700007203309173032817390771F480917103D4
:100710002091700390E0805C9F4F821B910960E400
:1007200070E00E94531D089580E090E008952091AC
:1007300072033091730328173907B9F4909170034D
:1007400080917103981789F0E0917003F0E0E45D07
:10075000FC4F80812091700330E02F5F3F4F2F735B
:1007600033272093700390E008958FEF9FEF089553
:10077000089580E090E008950E94991FCF92DF9243
:10078000EF92FF920F931F93CF93DF936C018B0136
:100790007A01EC01C459DC4F888187FF04C0FB015A
:1007A0001182108224C08CE08C9D90018D9D300DB3
:1007B00011248881A901480F511D87FD5A95809108
:1007C000C60490E04817590794F48881A901480F9E
:1007D000511D87FD5A95CA01FA01EE0FFF1F8E0FBA
:1007E0009F1FFC01EA5CFB4F808186FD19C0888158
:1007F0008F5F88838CE08C9D90018D9D300D11243E
:100800008881A901480F511D87FD5A958091C60422
:1008100090E048175907BCF488818C3044F113C02C
:100820008881280F311D87FD3A95F901EE0FFF1FD2
:100830002E0F3F1FF901EA5CFB4F808160E08F7350
:100840000E945C0CD4CFF8018081918104968034A1
:100850009C4918F480E49CE904C0F80180819181EE
:100860000496F701918380838FEF888345C0F80158
:10087000408151818881B901680F711D87FD7A958A
:10088000CB01FB01EE0FFF1F8E0F9F1FFC01EA5CE7
:10089000FB4F81819281840F951FF70191838083A3
:1008A0008881A901480F511D87FD5A95CA01FA0197
:1008B000EE0FFF1F8E0F9F1FFC01EA5CFB4F808134
:1008C00086FF1AC08881280F311D87FD3A95F901EE
:1008D000EE0FFF1F2E0F3F1FF901EA5CFB4F8081D7
:1008E00061E08F73DF91CF911F910F91FF90EF9097
:1008F000DF90CF900C945C0CDF91CF911F910F9102
:10090000FF90EF90DF90CF900895CF92DF92EF921B
:10091000FF920F931F93CF93DF938C017B01DC0138
:100920001596CD91DC9116976B016C177D0708F435
:100930006E01C60106960E94831DFC01892BB1F051
:10094000D382C282D80113968D919C911497918382
:1009500080831496FC93EE931397CC0FDD1F1696AD
:10096000DC93CE931597F582E4823696CF01DF9122
:10097000CF911F910F91FF90EF90DF90CF9008954E
:10098000DC011396ED91FC911497309751F024817E
:100990003581AB01420F531FA281B381A417B50764
:1009A00010F40C948504C9010696558344838E0F78
:1009B0009F1F0895FF920F931F93CF93DF93EC0136
:1009C000F62E88819981FC01A381B481109771F082
:1009D0001496ED91FC9115979F012F5F3F4F129652
:1009E0004D915C9113974217530758F52C813D8127
:1009F000B9016F5F7F4F0E9485048C016A817B8102
:100A00006115710549F00115110571F04C815D8189
:100A1000C8010E949E1F03C00115110529F0EC8139
:100A2000FD81E00FF11FF0821B830A838C819D8181
:100A300001969D838C83DF91CF911F910F91FF9041
:100A400008953696EA0FFB1F15963C932E93149744
:100A500060838C819D81892B49F7FB83EA83E6CFF4
:100A60001F920F920FB60F9211240BB60F922F9375
:100A70003F934F935F936F937F938F939F93AF9326
:100A8000BF93EF93FF9389E993E00E944F02FF9198
:100A9000EF91BF91AF919F918F917F916F915F91F6
:100AA0004F913F912F910F900BBE0F900FBE0F9063
:100AB0001F9018951F920F920FB60F9211240BB62C
:100AC0000F922F938F939F93EF93FF93E091A9033E
:100AD000F091AA038081E091AF03F091B00382FD11
:100AE00012C090818091B2038F5F8F732091B30306
:100AF000821751F0E091B203F0E0E756FC4F958F7A
:100B00008093B20301C08081FF91EF919F918F91FB
:100B10002F910F900BBE0F900FBE0F901F90189546
:100B20001F920F920FB60F9211240BB60F922F93B4
:100B30003F934F935F936F937F938F939F93AF9365
:100B4000BF93EF93FF9348E251E064E271E080E0ED
:100B500090E00E94BE03FF91EF91BF91AF919F91F2
:100B60008F917F916F915F914F913F912F910F9056
:100B70000BBE0F900FBE0F901F9018951F920F92F3
:100B80000FB60F9211240BB60F922F933F934F93F2
:100B90005F936F937F938F939F93AF93BF93EF93E5
:100BA000FF9348EA50E064EA70E083E090E00E943E
:100BB000BE03FF91EF91BF91AF919F918F917F9174
:100BC0006F915F914F913F912F910F900BBE0F90BE
:100BD0000FBE0F901F9018951F920F920FB60F9295
:100BE00011240BB60F922F933F934F935F936F9304
:100BF0007F938F939F93AF93BF93EF93FF9348E9B6
:100C000050E064E970E082E090E00E94BE03FF9152
:100C1000EF91BF91AF919F918F917F916F915F9174
:100C20004F913F912F910F900BBE0F900FBE0F90E1
:100C30001F9018951F920F920FB60F9211240BB6AA
:100C40000F922F933F934F935F936F937F938F9365
:100C50009F93AF93BF93EF93FF9348E850E064E80E
:100C600070E081E090E00E94BE03FF91EF91BF91A0
:100C7000AF919F918F917F916F915F914F913F9134
:100C80002F910F900BBE0F900FBE0F901F901895D5
:100C90001F920F920FB60F9211240BB60F922F9343
:100CA0003F934F935F936F937F938F939F93AF93F4
:100CB000BF93EF93FF93E0917203F091730330972A
:100CC00009F451C0968DA685B785858591FF04C02E
:100CD0009C91892329F447C09C91892309F043C042
:100CE000A389B4899C918589809589238C93868971
:100CF00097890197F1F7608D718DA685B785558528
:100D000038E020E0CB010197F1F7822F90E0959534
:100D10008795282F4C91452309F02068315091F791
:100D2000868D81FD20958091710390E001968F73EF
:100D3000992730917003381749F0A0917103B0E002
:100D4000A45DBC4F2C938093710303C0868D81609A
:100D5000868F828D938D0197F1F7A389B4899C9139
:100D60008589892B8C93FF91EF91BF91AF919F91D2
:100D70008F917F916F915F914F913F912F910F9044
:100D80000BBE0F900FBE0F901F901895E09172034D
:100D9000F0917303E817F90769F4A389B4899C916A
:100DA0008589809589238C93109273031092720326
:100DB00081E0089580E00895FC0180819181833075
:100DC00091053CF4813091057CF4009709F447C00B
:100DD00038C0853091052CF0059799F562817381B3
:100DE0002BC08281938108950280F381E02D30979A
:100DF00079F18081843779F18B3229F08D3221F4B9
:100E0000319691E002C0319690E060E070E03AE007
:100E1000819120ED280F2A3068F4369FA001379F7A
:100E2000500D1124682F880F770B60537109640FE0
:100E3000751FEECF992391F088279927861B970B72
:100E4000089562817381848195810E94071D06C087
:100E500080E090E0089581E090E00895CB0108954E
:100E60000F931F93CF93DF938B01FC01C281D3813A
:100E7000209759F06A817B81C8010E94A71F892BA6
:100E800021F00990D881C02DF3CFCE01DF91CF9111
:100E90001F910F910895FC01A081B1818C918D303B
:100EA00051F024F489508230B8F505C0803219F031
:100EB0008F3219F0089511962CC011968C911197CC
:100EC0008A3219F08F32D1F008951196B183A08340
:100ED000A081B181CD0101969183808311968C917F
:100EE00011978823C9F08A3299F712968C9112973C
:100EF0008F3271F713960DC08A3071F2A081B181E3
:100F0000CD0101969183808311968C918111F4CF4C
:100F100003C0B183A083C0CF08950F931F93CF93D5
:100F2000DF931F92CDB7DEB78C0169830E944B0718
:100F3000D801ED91FC91119780816981861305C0DC
:100F40003196ED93FC9381E001C080E00F90DF913A
:100F5000CF911F910F9108950F931F93CF93DF931C
:100F6000CDB7DEB727970FB6F894DEBF0FBECDBF63
:100F70008C01DC0114968D919C9115979A8389833D
:100F80001C821B821E821D82C80102960E944B0792
:100F9000D8011296ED91FC9113972081273221F10F
:100FA000223211F180ED820F8A3060F0822F8F7D26
:100FB00081548A3138F02B3229F083ED820F823050
:100FC00008F046C0F8018281938101969383828361
:100FD000622FCE0101960E94DA04D8011296ED919B
:100FE000FC9113972081DECF3196D8011396FC93A4
:100FF000EE931297D8011296ED91FC9113976081B0
:10100000662331F1CF01019613969C938E9312972C
:101010006217F1F06C35A9F46181A6E3B2E08C911E
:10102000882339F0861303C011966C9102C0129682
:10103000F6CF662369F03296D8011396FC93EE93AF
:101040001297CE0101962F830E94DA042F81D2CF0E
:1010500060E0CE0101960E94DA048B819C81279684
:101060000FB6F894DEBF0FBECDBFDF91CF911F91B9
:101070000F910895CF92DF92EF92FF920F931F93FB
:10108000CF93DF93CDB7DEB72C970FB6F894DEBFC2
:101090000FBECDBF7C018B016A0160E472E0CE011E
:1010A00001960E944B0FCA94CD2819F461E472E0B6
:1010B00002C06AE472E0CE0107960E944B0FB701AE
:1010C000CE0107960E94880E65E472E00E94DD0D55
:1010D000B8010E94880E68E472E00E94DD0DBC0138
:1010E000CE0101960E94D30ECE0107960E94EA0E11
:1010F0004D815E8169817A8189E993E00E94F60DD4
:101100004D815E8169817A818AEC94E00E94F60DBE
:1011100068EE73E080E090E00E94590DCE010196E8
:101120000E94EA0E2C960FB6F894DEBF0FBECDBF1C
:10113000DF91CF911F910F91FF90EF90DF90CF90B3
:101140000895CF93DF93CDB7DEB72C970FB6F89401
:10115000DEBF0FBECDBF60E472E0CE0101960E94FB
:101160004B0F8AEC94E00E947F0318161906F4F4E2
:101170008AEC94E00E9497030A9739F460E472E0E5
:10118000CE0101960E94BC0E11C0CE0107960E94AE
:10119000090B4B855C856F817885CE0101960E9495
:1011A000480ECE0107960E94EA0EDBCFCE010196D3
:1011B0000E94EA0E2C960FB6F894DEBF0FBECDBF8C
:1011C000DF91CF910895DB01109749F0ED91FC91EB
:1011D00011970190F081E02DBC01CD01199480E0C0
:1011E00090E008959F92AF92BF92CF92DF92EF92DC
:1011F000FF920F931F93CF93DF9300D000D0CDB712
:10120000DEB76C01FC0100811181B80184E090E03F
:101210000E94E308009739F0FC01118300831382D8
:1012200012828C0111C08091240381110BC0109295
:10123000210310922003109223031092220381E0D5
:101240008093240300E213E07601F2E0EF0EF11C3C
:101250006BE7C7010E948D07882309F466C06DE71C
:10126000C7010E948D07811171C086E0982EC601CA
:101270000E94AC075C01892B09F457C06AE3C701DF
:101280000E948D07882309F450C01A821982BE017A
:101290006F5F7F4FC6010E94FF09882309F445C094
:1012A000B501C8010E943007DC01892B51F5F80116
:1012B000608171818AE090E00E94E308DC01892B63
:1012C00039F011961C921E9215961C921E9214973C
:1012D000F801228133812115310551F0F901808116
:1012E0009181009711F09C01F9CFB183A08303C0D5
:1012F000F801B383A2831097C1F01396BC92AE920B
:101300001297FE0131961496892D01900D928A95BF
:10131000E1F76DE7C7010E948D07811117C06CE2EC
:10132000C7010E948D078111A2CF809124038111F2
:101330000BC01092210310922003109223031092ED
:10134000220381E08093240300E213E0C801269683
:101350000FB6F894DEBF0FBECDBFDF91CF911F91C6
:101360000F91FF90EF90DF90CF90BF90AF909F9044
:1013700008952FB7F8948091EE049091EF04A09116
:10138000F004B091F1042FBF8093D2049093D30462
:10139000A093D404B093D504E091CA04F091CB0497
:1013A0000284F385E02D8AEC94E0199597FF26C01E
:1013B0002FB7F8948091EE049091EF04A091F0047F
:1013C000B091F1042FBF4091D2045091D3046091A9
:1013D000D4047091D504841B950BA60BB70B4091D8
:1013E000CE045091CF046091D0047091D104841741
:1013F0009507A607B70780F28FEF9FEF08959F929A
:10140000AF92BF92CF92DF92EF92FF920F931F9312
:10141000CF93DF9300D000D0CDB7DEB7FC0196812B
:10142000992309F4E2C06B017F01915096835F011B
:1014300082E0A80EB11CC5010E944B07D70112968D
:10144000ED91FC91139780818B3521F08B3709F456
:1014500099C0A3C0F70100811181B80184E090E038
:101460000E94E308009751F0DC0111961C930E9343
:1014700013961C921E9212978C0111C08091F60453
:1014800081110BC01092F3041092F2041092F50433
:101490001092F40481E08093F60402EF14E06BE50F
:1014A000C5010E948D07882309F44CC06DE5C50174
:1014B0000E948D07811157C086E0982E1A821982EA
:1014C000BE016F5F7F4FC7010E94FF098823D1F1E2
:1014D000F8016081718188E090E00E94E308DC01FE
:1014E000892B39F011961C921E9213961C921E9213
:1014F0001297F801228133812115310551F0F9014C
:1015000080819181009711F09C01F9CFB183A08374
:1015100003C0F801B383A2831097A1F0FE013196B6
:101520001296892D01900D928A95E1F76DE5C5011E
:101530000E948D07811117C06CE2C5010E948D07C2
:101540008111BCCF8091F60481110BC01092F3047D
:101550001092F2041092F5041092F40481E080934A
:10156000F60402EF14E0D8018D919C91892B11F4BF
:1015700010E033C086E090E0F6019183808313830E
:1015800002832AC0C7010E94F208DC012D913C9120
:10159000232B71F327E030E01AC011E0873219F0F5
:1015A000823209F010E0C7010E94AC07009701F3F6
:1015B000112359F022E030E0D60111963C932E938E
:1015C00013969C938E93129708C021E030E0F601A9
:1015D000318320839383828311E0D70116968C9107
:1015E00016978F5F16968C9301C010E0812F269678
:1015F0000FB6F894DEBF0FBECDBFDF91CF911F9124
:101600000F91FF90EF90DF90CF90BF90AF909F90A1
:1016100008950F931F93CF93DF931F921F92CDB71F
:10162000DEB78C0160E472E00E944B0F0E94B909A2
:1016300097FD0BC089831A8241E050E0BE016F5FC5
:101640007F4FC8010E94480EF1CFC8010F900F9044
:10165000DF91CF911F910F910895CF93DF93FC01FC
:10166000448155816081718189E993E00E94F60D82
:10167000EC016FED72E089E993E00E94600F8C0F3E
:101680009D1FDF91CF910895CF93DF93BC0189E92E
:1016900093E00E94600FEC016FED72E089E993E046
:1016A0000E94600F8C0F9D1FDF91CF9108958F9244
:1016B0009F92AF92BF920F931F93CF93DF93CDB7BB
:1016C000DEB7A1970FB6F894DEBF0FBECDBF19A24B
:1016D000423008F44AE08E010F5D1F4F842E912C9A
:1016E000A12CB12CA50194010E94F71BE62FB90192
:1016F000CA0101501109EA3014F4E05D01C0E95C4F
:10170000D801EC93232B242B252B61F7B80189E911
:1017100093E00E94600FA1960FB6F894DEBF0FBE53
:10172000CDBFDF91CF911F910F91BF90AF909F9050
:101730008F900895E0919903F0919A030190F081C0
:10174000E02D682F89E993E01994CF92DF92EF9210
:10175000FF92CF93DF936C01990FEE08FF08F7FE1D
:1017600012C08DE20E949A0BEC0166277727CB010D
:101770006C197D098E099F094AE00E94570B7C0174
:10178000EC0EFD1E06C04AE0C701B6010E94570BD1
:101790007C016FED72E089E993E00E94600F8E0D8D
:1017A0009F1DDF91CF91FF90EF90DF90CF90089534
:1017B000CF92DF92EF92FF92DC01A03282E0B80775
:1017C0000CF03EC0B7FD06C0A53BB1052CF0A4EB64
:1017D000B0E002C0A0E0B0E08091C80428E830E0AA
:1017E0006901C81AD10887FDD394CC0CDD1CCC0C40
:1017F000DD1C0D2C000CEE08FF088091C90428E5C3
:1018000032E0281B310987FD3395220F331F220F49
:10181000331FA901330F660B770B9A01AB012C190B
:101820003D094E095F090E94EF1B24EB30E040E0C8
:1018300050E00E94C51BC20ED31EE41EF51ED60149
:101840009091C704903398F58091C80448E850E01F
:10185000481B510987FD5395440F551F440F551FD1
:10186000A417B5078CF08091C90428E532E0281B45
:10187000310987FD3395220F331F220F331FAD012E
:101880002A173B070CF4A90142505109440F551F78
:101890002FB7F894892F90E0FC01EE0FFF1F8E0FF9
:1018A0009F1FFC01EA5CFB4F528341832FBFFF90D7
:1018B000EF90DF90CF900895362F90E0FC01E05636
:1018C000FD4F4491FC01E05AFC4F2491FC01E65E7F
:1018D000FC4F9491992309F46BC0442309F455C03B
:1018E00050E0FA013197E231F10508F04EC0882747
:1018F000EE58FF4F8F4F0C94671D809180008F77BB
:1019000007C0809180008F7D03C080918000877F19
:10191000809380003AC084B58F7702C084B58F7DF4
:1019200084BD33C08091B0008F7703C08091B00038
:101930008F7D8093B00029C0809190008F7707C081
:10194000809190008F7D03C080919000877F80936D
:1019500090001BC08091A0008F7707C08091A000ED
:101960008F7D03C08091A000877F8093A0000DC071
:10197000809120018F7707C0809120018F7D03C067
:1019800080912001877F80932001E92FF0E0EE0F06
:10199000FF1FEA51FD4FA591B4918FB7F894EC91D8
:1019A000311103C020952E2301C02E2B2C938FBF05
:1019B0000895CF93DF9390E0FC01E05AFC4F24910F
:1019C000FC01E65EFC4F8491882361F190E0880F72
:1019D000991FFC01EA57FD4FC591D491FC01EA51D2
:1019E000FD4FA591B491611109C09FB7F89488810A
:1019F000209582238883EC912E230BC0623061F402
:101A00009FB7F8943881822F809583238883EC9147
:101A10002E2B2C939FBF06C08FB7F894E8812E2BF6
:101A200028838FBFDF91CF910895863308F08653C6
:101A300090917B00282F2870977F922B90937B00AA
:101A40008770806480937C0080917A0080648093AA
:101A50007A0080917A0086FDFCCF809178002091F9
:101A6000790090E0922B08953FB7F8948091EA04B2
:101A70009091EB04A091EC04B091ED0426B5A89BE5
:101A800005C02F3F19F00196A11DB11D3FBFBA2F10
:101A9000A92F982F8827820F911DA11DB11DBC0170
:101AA000CD0142E0660F771F881F991F4A95D1F735
:101AB00008958F929F92AF92BF92CF92DF92EF9252
:101AC000FF926B017C010E94340D4B015C01C1143B
:101AD000D104E104F104F1F00E94340DDC01CB01EA
:101AE00088199909AA09BB09883E9340A105B10547
:101AF00070F321E0C21AD108E108F10888EE880EDF
:101B000083E0981EA11CB11CC114D104E104F104AE
:101B100019F7DDCFFF90EF90DF90CF90BF90AF909F
:101B20009F908F9008951F920F920FB60F921124DD
:101B30002F933F938F939F93AF93BF938091EE0426
:101B40009091EF04A091F004B091F1043091E90478
:101B500023E0230F2D3720F40196A11DB11D05C0F0
:101B600026E8230F0296A11DB11D2093E90480935E
:101B7000EE049093EF04A093F004B093F1048091ED
:101B8000EA049091EB04A091EC04B091ED0401966D
:101B9000A11DB11D8093EA049093EB04A093EC0483
:101BA000B093ED04BF91AF919F918F913F912F9191
:101BB0000F900FBE0F901F901895CF93DF93EC01FD
:101BC0006115710561F0FB0101900020E9F7319783
:101BD000AF01461B570B0E94480E811103C0CE0176
:101BE0000E94760ECE01DF91CF910895CF92DF92C1
:101BF000EF92FF920F931F93CF93DF936C017A01C3
:101C00008B01C0E0D0E0CE15DF0589F0D8016D91E1
:101C10008D01D601ED91FC910190F081E02DC6017E
:101C20001995892B11F47E0102C02196ECCFC701D2
:101C3000DF91CF911F910F91FF90EF90DF90CF90A8
:101C400008950F931F93CF93DF93EC0188819981BF
:101C5000009729F02A813B812617370788F48B01EA
:101C60006F5F7F4F0E94B01E009761F09983888359
:101C70001B830A832C813D81232B11F4FC011082EC
:101C800081E001C080E0DF91CF911F910F91089515
:101C9000EF92FF920F931F93CF93DF93FC01248168
:101CA00035816115710511F480E019C041155105A8
:101CB000A9F07B01EC018A01020F131FB8010E94F9
:101CC000210E882389F3288139818C819D81B70178
:101CD000820F931F0E94B01F1D830C8381E0DF9150
:101CE000CF911F910F91FF90EF900895CF93DF93C5
:101CF000EC0188819981009711F00E94181E1982C9
:101D000018821D821C821B821A82DF91CF91089556
:101D1000CF93DF93EC01FB01448155816081718198
:101D20000E94480E811103C0CE010E94760ECE01A2
:101D3000DF91CF910895EF92FF920F931F93CF936E
:101D4000DF93EC017B018A01BA010E94210E81110F
:101D500004C0CE010E94760E07C01D830C83B7011C
:101D6000888199810E94B01FCE01DF91CF911F9190
:101D70000F91FF90EF900895CF93DF93EC016115E1
:101D8000710559F0FB0101900020E9F73197AF018F
:101D9000461B570B0E949B0E02C00E94760ECE017E
:101DA000DF91CF910895CF93DF93EC01FB0186176C
:101DB000970761F0608171816115710529F0448197
:101DC00055810E949B0E02C00E94760ECE01DF91CB
:101DD000CF910895FC01808191810C94181EEF929F
:101DE000FF920F931F93CF93DF93CDB7DEB7A197E9
:101DF0000FB6F894DEBF0FBECDBF7C01CB01BA0198
:101E0000F70111821082138212821582148242E03D
:101E1000420F8E010F5F1F4F0E94DB17BC01C701ED
:101E20000E94BC0EA1960FB6F894DEBF0FBECDBFC8
:101E3000DF91CF911F910F91FF90EF9008950F9335
:101E40001F93CF93DF93CDB7DEB762970FB6F894A9
:101E5000DEBF0FBECDBF8C01CB01F8011182108215
:101E6000138212821582148250E0BE016F5F7F4F91
:101E70000E94FB17BE016F5F7F4FC8010E94BC0E1E
:101E800062960FB6F894DEBF0FBECDBFDF91CF9143
:101E90001F910F910895FC0111821082138212820A
:101EA000158214826115710551F0FB01019000202B
:101EB000E9F73197AF01461B570B0C949B0E089521
:101EC0006115710579F0FB0101900020E9F7319768
:101ED000AF01461B570BDC01ED91FC910280F381B1
:101EE000E02D199480E090E0089584E292E09093D0
:101EF000CB048093CA048AEC94E00C94C606CF937A
:101F0000DF93CDB7DEB7EC970FB6F894DEBF0FBE08
:101F1000CDBF789484B5826084BD84B5816084BD72
:101F200085B5826085BD85B5816085BD80916E0077
:101F3000816080936E0010928100809181008260A8
:101F400080938100809181008160809381008091E5
:101F500080008160809380008091B10084608093D4
:101F6000B1008091B00081608093B00080919100B9
:101F700082608093910080919100816080939100B4
:101F8000809190008160809390008091A100826098
:101F90008093A1008091A10081608093A100809135
:101FA000A00081608093A0008091210182608093D5
:101FB0002101809121018160809321018091200184
:101FC00081608093200180917A00846080937A0000
:101FD00080917A00826080937A0080917A0081609B
:101FE00080937A0080917A00806880937A001092C2
:101FF000C100E091A903F091AA0382E08083E091FF
:10200000A503F091A6031082E091A703F091A80325
:1020100080E180831092B103E091AD03F091AE03B3
:1020200086E08083E091AB03F091AC038081806116
:102030008083E091AB03F091AC0380818860808362
:10204000E091AB03F091AC03808180688083E091E4
:10205000AB03F091AC0380818F7D80831092E50407
:102060001092E4041092E3041092E2041092E1044E
:102070001092E0048DE991E09093E7048093E604E8
:102080008091D60496EF980F943048F02EEC280FEC
:10209000243028F022EC280F283008F06EC02DEBF9
:1020A00030E03093E1042093E0042BE931E03093F9
:1020B000E3042093E2042CE231E03093E504209322
:1020C000E404943060F02EEC280F243040F022EC31
:1020D000280F283008F4A1C6A0E0B0E0A0C6A8E60A
:1020E000B0E0E8E6F0E02081943018F08E538830BC
:1020F00010F081E001C084E0822B8C938091D604A3
:1021000096EF980F943058F02EEC280F243038F0CA
:1021100022EC280F283030F020E030E005C02BE61C
:1021200030E002C02DE630E03093DE042093DD0481
:10213000943010F49AEF0BC0823381F0833381F036
:10214000843381F092EC980F983070F492EC980FF1
:1021500081E001C0880F9A95EAF707C088E005C0C2
:1021600084E003C082E001C081E08093DF048091BD
:10217000E6049091E7040197F1F78091E4049091CF
:10218000E504892B21F1809172039091730324E07F
:102190008A3C9207E1F0009711F00E94C6068091F8
:1021A000E8048E7F8093E80410927103109270030C
:1021B0008AEC94E09093730380937203E091DD04C2
:1021C000F091DE0490818091DF04892B80838091DF
:1021D000C704803308F052C061E083E00E94D90C4C
:1021E0008091C704E82FF0E09F01220F331FE20F18
:1021F000F31FEA5CFB4F9081907C93609083109278
:10220000C8041092C9046CE00E94471D9CE0899F9D
:10221000B001112440E050E09A01260F371FF90168
:10222000EE0FFF1F2E0F3F1FF901EA5CFB4F90815D
:1022300096FD17C04F5F5F4F4C30510569F78130F5
:1022400009F0AAC51092800082E08093810010926C
:10225000850010928400B19A80916F008260809313
:102260006F00E091C704F0E0CF01880F991FE80FDD
:10227000F91FEA5CFB4F80818064808360E087E324
:102280000E94D90C60E088E30E94D90C60E086E3EC
:102290000E94D90C10927503109274031092980347
:1022A000109297030CE012E06CE2A62EB12C7E0196
:1022B000A2E2EA0EF11C7AE0772E809174039091ED
:1022C0007503892B09F0BBC06DE472E089E993E0E6
:1022D0000E94600F60E472E0CE018F960E944B0F67
:1022E0008AEC94E00E947F03892B49F561ED72E04E
:1022F00089E993E00E94600F68EE73E080E090E06F
:102300000E94590DEDCF8AEC94E00E9497030A9742
:10231000E9F061ED72E089E993E00E94600FCE017F
:1023200001960E94090B4D815E8169817A81CE01FF
:102330008F960E94480ECE0101960E94EA0E8AEC0A
:1023400094E00E947F03892BD1F3DDCF80E492E0FB
:102350000E94440BCE018F960E942D0B1AA619A63F
:102360001CA61BA61EA61DA6BE01615D7F4FCE0149
:1023700089960E94D30E1BA30AA31EA21DA2B8A673
:10238000AFA289A59AA5009711F480E492E0FA82A1
:10239000E9829C838B83FE82ED827F82CE0101964F
:1023A0000E94F2086C011BA30AA3EDA1FEA13097C5
:1023B00059F08281938198A78FA380809180CF016B
:1023C0000E94181EF401F3CFCE0189960E94EA0EF6
:1023D000CE018F960E94EA0E65E572E0C6010E946A
:1023E0003007009719F4812C912C04C004960E94A8
:1023F000DC064C01909275038092740363E173E0F4
:10240000C6010E943007009721F004960E94DC0666
:1024100002C080E090E09093980380939703C401FA
:102420000E94A50B80919703909198030E94A50BA1
:1024300068EE73E080E090E00E94590D3ECF8091FD
:10244000970390919803892B09F43ECF60919703ED
:1024500070919803072E000C880B990B0E94A81A04
:102460009B01AC010E94291C0E94071D69AF7AAF35
:102470008BAF9CAF29AC3AACE7E6F3E0F490E1E235
:10248000F3E0E491F0E0EE0FFF1FE050FD4F059107
:10249000149110929203109293031092940310924D
:1024A00095031092960361E087E00E94D90C60E0EA
:1024B00087E00E945C0C62E170E080E090E00E94A6
:1024C000590D61E087E00E945C0C8BE990E0019778
:1024D000F1F760E087E00E94D90C20E931E0F801D3
:1024E00080818F2121F421503109C9F781C420E96D
:1024F00031E0D8018C918F2121F021503109C9F7A9
:1025000077C438E2D32E40E8E42EC12C80E991E074
:10251000F80120812F2119F40197D1F769C40E9495
:10252000340D4B015C0180E991E0D8012C912F2101
:1025300019F00197D1F75CC40E94340DDC01CB0186
:1025400088199909AA09BB098997A105B10538F02D
:10255000EC2DF0E0E657FC4F80858E2980878E2D8C
:1025600090E095958795009711F0E82E03C0C394ED
:1025700080E8E82EDA94D110C9CF61E087E00E94AC
:10258000D90C61E087E00E945C0C6091920370E0DE
:1025900080E090E00E94A61A60938A0370938B03F8
:1025A00080938C0390938D036091940370E080E09E
:1025B00090E00E94A61A60938E0370938F0380931D
:1025C00090039093910310927603109277031092E8
:1025D00078031092790310927A0310927B03109281
:1025E0007C0310927D0310927E0310927F03109261
:1025F0008003109281038091740390917503813060
:10260000910509F0B8C0E12CF12CC7010E94D80B4C
:1026100064EF71E080E090E00E94590D87E30E9432
:10262000150D6C0188E30E94150DC80ED91E86E3B6
:102630000E94150DBC01990F880B990B0E94A81AD6
:1026400020E030EC4FE754E40E94951C20E030E09D
:1026500040EA50E40E94071B9B01AC010E94291C28
:102660004B015C01B6010D2C000C880B990B0E94EC
:10267000A81A2B013C019B01AC0160917E03709173
:102680007F0380918003909181030E94A11A87FFAC
:102690001FC040927E0350927F036092800370922D
:1026A0008103B7010F2C000C880B990B0E94A81A0C
:1026B0006093760370937703809378039093790304
:1026C00080927A0390927B03A0927C03B0927D0368
:1026D00022E0B501A401CE0101960E94EF0E4AE06E
:1026E000B601CE0182960E941F0F4AE0B701CE01CB
:1026F00089960E941F0F67E572E0CE018F960E94B7
:102700004B0FBE01675D7F4FCE018F960E94880EF2
:1027100067E672E00E94DD0DBE016E5D7F4F0E9494
:10272000880E6EE772E00E94DD0DBE016F5F7F4F85
:102730000E94880E0E942D0BCE018F960E94EA0EF9
:10274000CE0189960E94EA0ECE0182960E94EA0E80
:10275000CE0101960E94EA0E64EF71E080E090E005
:102760000E94590DB2E1EB0EF11CE6ECEE16F104FD
:1027700009F04BCFBCC0029709F0B9C0812C912C55
:10278000C12CD12C0AEA10E087E30E94150D7C01D0
:102790000E94A50B62E370E080E090E00E94590D7A
:1027A00088E30E94150D5C010E94A50B62E370E0B6
:1027B00080E090E00E94590DF4E1EF16F1047CF402
:1027C00024E1A216B1045CF480E090E00E94D80BF2
:1027D00062E370E080E090E00E94590D16C0EA18B4
:1027E000FB088091000290910102A3E3EA16F10434
:1027F00014F0019706C0BEECEB16BFEFFB062CF4FD
:1028000001969093010280930002809100029091C2
:1028100001028A3A91052CF0109301020093000204
:1028200008C00B9734F4EAE0F0E0F0930102E09383
:102830000002E0900002F09001028E149F0419F44F
:10284000FFEFCF1ADF0AC7010E94D80B4AE0B70199
:10285000CE0101960E941F0F63E972E0CE018296BD
:102860000E944B0FBE016F5F7F4FCE0182960E9488
:10287000880E0E942D0BCE0182960E94EA0ECE0198
:1028800001960E94EA0E8CEA92E00E94440B24E634
:10289000C216D10451F587E30E94150D8C0188E31F
:1028A0000E94150D800F911FBC01990F880B990B89
:1028B0000E94A81A60937E0370937F038093800325
:1028C000909381036091000270910102072E000C29
:1028D000880B990B0E94A81A609376037093770374
:1028E000809378039093790302C047014DCF6091A4
:1028F00076037091770380917803909179030E9419
:10290000071DCB010E94D80B8EE992E00E94440B78
:1029100068EE73E080E090E00E94590D8EEB92E04B
:102920000E94440B1DAA1EAA1FAA18AE00E010E0C8
:10293000021513050CF0D2C086E30E94150DBC01F0
:10294000990F880B990B0E94A81A20E030EC4FE7F2
:1029500054E40E94951C20E030E040EA50E40E94DC
:10296000071B9B01AC010E94291C6B017C019B0190
:10297000AC010E94421D882319F063ED72E01AC079
:1029800046015701E894B7F82FEF3FEF4FE75FE7B5
:10299000C501B4010E94421D811111C02FEF3FEF0C
:1029A0004FE75FE7C501B4010E94A11A18163CF475
:1029B00067ED72E089E993E00E94600F72C02FEF2B
:1029C0003FEF4FE75FE4C701B6010E943D1D1816B7
:1029D0001CF46BED72E0EECF2FEF3FEF4FE75FECB3
:1029E000C701B6010E94A11A87FDF3CF20E030E0B5
:1029F000A901C701B6010E94A11A87FF07C08DE295
:102A00000E949A0BC701B601905802C0C701B601D7
:102A10002AE037ED43EA5BE30E94291C2B013C01CD
:102A20000E940E1D4B015C010E94A61A9B01AC0185
:102A3000C301B2010E94281C2B013C014AE0C501E0
:102A4000B4010E94570B8EE20E949A0B20E030E006
:102A500040E251E4C301B2010E94071B4B015C013B
:102A60000E940E1D2B01612C712C4AE0C301B201A2
:102A70000E94570BC301B2010E94A61A9B01AC0130
:102A8000C501B4010E94281C20E030E040E251E47E
:102A90000E94071B0E940E1D80E090E04AE00E9409
:102AA000570B6FED72E089E993E00E94600FA70178
:102AB00096016DA97EA98FA998AD0E94291C6DABC6
:102AC0007EAB8FAB98AF0F5F1F4F0E94A10860EDE8
:102AD00077E080E090E00E94590D2ACF69AD7AAD91
:102AE00077FF02C060E070E0072E000C880B990BA6
:102AF0000E94A81A9B01AC016DA97EA98FA998AD6F
:102B00000E94951C60937A0370937B0380937C03EF
:102B100090937D032DEC3CEC4CE45EE30E94071B9C
:102B20006B017C0160938603709387038093880315
:102B3000909389038091970390919803BC01990F1A
:102B4000880B990B0E94A81A9B01AC01C701B60122
:102B50000E94071B60938203709383038093840316
:102B6000909385030E94A1084091760350917703CA
:102B7000609178037091790322E0CE0101960E9462
:102B8000EF0E62EE72E0CE0182960E944B0F41E0A2
:102B900050E0BE016F5F7F4FCE0182960E943A08DF
:102BA000CE0182960E94EA0ECE0101960E94EA0EA4
:102BB00040917E0350917F03609180037091810367
:102BC00022E0CE0101960E94EF0E68EE72E0CE0187
:102BD00082960E944B0F40E050E0BE016F5F7F4F36
:102BE000CE0182960E943A08CE0182960E94EA0E99
:102BF000CE0101960E94EA0E40917A0350917B0328
:102C000060917C0370917D0322E0CE0101960E94C9
:102C1000EF0E62EF72E0CE0182960E944B0F40E011
:102C200050E0BE016F5F7F4FCE0182960E943A084E
:102C3000CE0182960E94EA0ECE0101960E94EA0E13
:102C400060918E0370918F03809190039091910316
:102C50001BA21AA21DA21CA21FA21EA28E010F5F00
:102C60001F4F22E044E00E94DB17BC01CE01829698
:102C70000E94BC0E6AEF72E0C8010E944B0F40E058
:102C800050E0BE016E5D7F4FC8010E943A08C80146
:102C90000E94EA0ECE0182960E94EA0E60918A039B
:102CA00070918B0380918C0390918D031BA21AA2CB
:102CB0001DA21CA21FA21EA222E044E00E94DB175C
:102CC000BC01CE0182960E94BC0E66E073E0C80192
:102CD0000E944B0F40E050E0BE016E5D7F4FC80187
:102CE0000E943A08C8010E94EA0ECE0182960E9414
:102CF000EA0E40918603509187036091880370919A
:102D0000890322E0C8010E94EF0E6FE073E0CE015C
:102D100082960E944B0F40E050E0B801CE018296AF
:102D20000E943A08CE0182960E94EA0EC8010E94D3
:102D3000EA0E409182035091830360918403709165
:102D4000850322E0C8010E94EF0E65E173E0CE0129
:102D500082960E944B0F40E050E0B801CE0182966F
:102D60000E943A08CE0182960E94EA0EC8010E9493
:102D7000EA0E60EE72E08AEC94E00E94600F8CE153
:102D800093E00E94440B68EE73E080E090E00E94C4
:102D9000590D0E94D9025ACB823061F410929000F2
:102DA00080939100109295001092940088BB8093BC
:102DB000710057CA833069F41092A00082E08093BA
:102DC000A1001092A5001092A40089BB809372000C
:102DD00048CA811146CA1092200182E080932101E5
:102DE00010922501109224018ABB8093730039CA86
:102DF00080E090ECA9E7B4EC80938A0390938B0376
:102E0000A0938C03B0938D0380938E0390938F03D4
:102E1000A0939003B0939103D6CBA8E6B0E02830FE
:102E200008F45FC9E0E0F0E05EC910929C031092E4
:102E30009B0388EE93E0A0E0B0E080939D03909325
:102E40009E03A0939F03B093A00322E132E030934E
:102E50009A032093990325EC30E03093A603209346
:102E6000A50324EC30E03093A8032093A70320ECC3
:102E700030E03093AA032093A90321EC30E0309393
:102E8000AC032093AB0322EC30E03093AE032093ED
:102E9000AD0326EC30E03093B0032093AF031092E3
:102EA000B2031092B3031092B4031092B5031092C0
:102EB000CD041092CC048093CE049093CF04A093C1
:102EC000D004B093D10484E292E09093CB04809339
:102ED000CA041092E1041092E0041092E3041092EC
:102EE000E2041092E5041092E4041092E7041092B8
:102EF000E6046091E8046E7F6D7F6093E804669558
:102F0000617081E068278BE00E945C0C61E08BE0DF
:102F10000E94D90CEBE6F3E0E491E093DA04E5E2F9
:102F2000F3E0E491F0E0EE0FFF1FEA51FD4F8591D1
:102F300094919093DC048093DB0460E08AE00E942B
:102F4000D90C8091E80481FD04C061E08AE00E9410
:102F50005C0C8AE08093D604EAE6F3E0E491E09327
:102F6000D704E4E2F3E0E491F0E0EE0FFF1FE0505D
:102F7000FD4F859194919093D9048093D8048091CA
:102F8000C6048033A0F491E0980F9093C604809318
:102F9000C70490E0FC01EE0FFF1F8E0F9F1FFC0186
:102FA000EA5CFB4F88EB9BE09283818308958FEF6F
:102FB0008093C7040895EF920F931F93CF93DF93ED
:102FC000E80147FD02C034E001C034E1E42F440FC2
:102FD000FF0BF7FF03C0F195E195F109E32E022FF6
:102FE0002E2FAE010E942B18CE01DF91CF911F91A1
:102FF0000F91EF9008954532510520F4423010F0C2
:103000000C940618FB011082CB010895BB274A30AF
:1030100031F4992322F4BDE2909581959F4F0C9451
:103020001218BB27FB015527AA27880F991FAA1F33
:10303000A41710F0A41B83955051B9F7A05DAA33D3
:1030400008F0A95DA193009779F7B111B19311929E
:10305000CB010C94911A4F925F926F927F929F9244
:10306000AF92BF92CF92DF92EF92FF920F931F9396
:10307000CF93DF93CDB7DEB729970FB6F894DEBFB5
:103080000FBECDBF6A01122FB02E2BE3201720F008
:10309000FF24F394F00E02C0BCE3FB2E0F2D27E0BB
:1030A000AE014F5F5F4F0E94B919AC018981982F23
:1030B0009970913031F0E1FC06C0E0FE06C090E26C
:1030C00005C09DE203C09BE201C090E0EE2DE071DF
:1030D00083FF3CC0911102C083E001C084E08117EE
:1030E00018F4212F281B01C020E0E1110BC0F601CC
:1030F000822F30E2882319F031938150FBCFC20E2A
:10310000D11C20E0992329F0D6019C93F601319639
:103110006F01C6010396E2FE0AC03EE4D6013C936D
:1031200041E411964C93119712963C9306C03EE6EB
:10313000F601308341E641833283FC01322F40E2C5
:10314000332309F442C041933150FACF82FF44C087
:10315000911102C083E001C084E0811718F4212F8F
:10316000281B01C020E0E1110BC0F601822F30E2E4
:10317000882319F031938150FBCFC20ED11C20E07F
:10318000992329F0D6019C93F60131966F01C6016F
:103190000396E2FE0BC039E4D6013C933EE411965F
:1031A0003C93119736E412963C9307C039E6F6013A
:1031B00030833EE6318336E63283FC01322F40E233
:1031C000332319F041933150FBCFFC01E20FF11D85
:1031D00010828EEF9FEFB7C0F1E0911101C0F0E0D7
:1031E0006F2F70E01416150624F49A012F5F3F4FDD
:1031F00002C021E030E0260F371FBB2029F06B2DE5
:1032000070E06F5F7F4F02C060E070E0260F371FF5
:10321000612F70E0261737071CF4121B212F01C005
:1032200020E03E2D387159F4D601322F60E233236D
:1032300019F06D933150FBCFC20ED11C20E0FF235B
:1032400031F0D6019C93B6016F5F7F4F6B01E111A6
:103250000BC0F601922F30E3992319F0319391506E
:10326000FBCFC20ED11C20E09F2D940F3A81782F06
:103270007071A72E84FF03C0313309F491501916E1
:1032800024F4993018F098E001C091E0E42F852FE4
:1032900057FF02C0E0E080E06E2F782FE0E0F0E022
:1032A000AEE29A2E3A01691A71082A01461A570AA3
:1032B0000B2D10E01195019511096F3F8FEF7807E5
:1032C00029F4D6019C92C60101966C014617570756
:1032D00084F0661677066CF47F01E40CF51CA1E01F
:1032E000B0E0AC0FBD1FEA0EFB1ED7011196BC90DB
:1032F00002C090E3B92E615071093196C601019662
:103300007C016017710724F0D601BC926C01D5CF07
:103310006417750741F4363320F4353321F4A110D6
:1033200002C081E3B82EF601B082F701822F90E24D
:10333000882319F091938150FBCFF701E20FF11D23
:10334000108280E090E029960FB6F894DEBF0FBEA1
:10335000CDBFDF91CF911F910F91FF90EF90DF9044
:10336000CF90BF90AF909F907F906F905F904F9065
:103370000895283008F027E03327DA01990F311D2E
:1033800087FD916000966105710539F432602E5F0A
:103390003D9330E32A95E1F708959F3F30F0803860
:1033A0007105610509F03C5F3C5F3D93913008F089
:1033B0008068911DDF93CF931F930F93FF92EF923D
:1033C000192F987F9695E92F96959695E90FFF27E7
:1033D000EA51FE4F99273327EE24FF24A701E70186
:1033E00005900894079428F4360FE71EF81E491F2D
:1033F000511D660F771F881F991F0694A1F705902E
:10340000079428F4E70EF81E491F561FC11D770FB9
:10341000881F991F661F0694A1F70590079428F44A
:10342000F80E491F561FC71FD11D880F991F661F11
:10343000771F0694A1F70590079420F4490F561FB3
:10344000C71FD81F990F661F771F881F0694A9F7FB
:1034500084911095177041F0D695C795579547956B
:10346000F794E7941A95C1F7ECE8F1E068941590A9
:10347000159135916591959105907FE27395E118CD
:10348000F10A430B560BC90BD009C0F7E10CF11E32
:10349000431F561FC91FD01D7EF4703311F48A9547
:1034A000E6CFE894015030F0080F0AF40027021725
:1034B00008F4202F2395022F7A3328F079E37D93A7
:1034C0002A95E9F710C07D932A9589F60694979579
:1034D0006795379517951794E118F10A430B560B2A
:1034E000C90BD00998F023957E9173957A3308F033
:1034F00070E37C932013B8F77E9170617D9330F078
:10350000839571E37D9370E32A95E1F71124EF90A1
:10351000FF900F911F91CF91DF91992787FD909593
:103520000895DC01FC01672F71917723E1F7329751
:1035300004C07C916D9370836291AE17BF07C8F38E
:1035400008950E94E31A08F481E00895E89409C000
:1035500097FB3EF490958095709561957F4F8F4FC6
:103560009F4F9923A9F0F92F96E9BB279395F695DC
:10357000879577956795B795F111F8CFFAF4BB0F5A
:1035800011F460FF1BC06F5F7F4F8F4F9F4F16C0BE
:10359000882311F096E911C0772321F09EE8872F48
:1035A000762F05C0662371F096E8862F70E060E004
:1035B0002AF09A95660F771F881FDAF7880F96957D
:1035C000879597F90895990F0008550FAA0BE0E821
:1035D000FEEF16161706E807F907C0F012161306D5
:1035E000E407F50798F0621B730B840B950B39F415
:1035F0000A2661F0232B242B252B21F408950A267B
:1036000009F4A140A6958FEF811D811D08950E94A8
:103610001A1B0C948B1B0E947D1B38F00E94841B8C
:1036200020F0952311F00C94741B0C947A1B112438
:103630000C94BF1B0E949C1B70F3959FC1F3950FC8
:1036400050E0551F629FF001729FBB27F00DB11D26
:10365000639FAA27F00DB11DAA1F649F6627B00DB6
:10366000A11D661F829F2227B00DA11D621F739F9F
:10367000B00DA11D621F839FA00D611D221F749FAD
:103680003327A00D611D231F849F600D211D822FF4
:10369000762F6A2F11249F5750409AF0F1F088231B
:1036A0004AF0EE0FFF1FBB1F661F771F881F915048
:1036B0005040A9F79E3F510580F00C94741B0C9468
:1036C000BF1B5F3FE4F3983ED4F3869577956795EB
:1036D000B795F795E7959F5FC1F7FE2B880F911D72
:1036E0009695879597F9089597F99F6780E870E018
:1036F00060E008959FEF80EC089500240A94161668
:10370000170618060906089500240A9412161306CF
:10371000140605060895092E0394000C11F488235D
:1037200052F0BB0F40F4BF2B11F460FF04C06F5F79
:103730007F4F8F4F9F4F089557FD9058440F551F4F
:1037400059F05F3F71F04795880F97FB991F61F023
:103750009F3F79F087950895121613061406551F9A
:10376000F2CF4695F1DF08C0161617061806991F06
:10377000F1CF86957105610508940895E894BB27FB
:1037800066277727CB0197F90895052E97FB1EF43E
:1037900000940E94DC1B57FD07D00E94F71B07FC1A
:1037A00003D04EF40C94DC1B509540953095219538
:1037B0003F4F4F4F5F4F089590958095709561955D
:1037C0007F4F8F4F9F4F08950E94191CA59F900D0A
:1037D000B49F900DA49F800D911D11240895B7FFF3
:1037E0000C94E41B0E94E41B821B930B0895A1E23E
:1037F0001A2EAA1BBB1BFD010DC0AA1FBB1FEE1F6B
:10380000FF1FA217B307E407F50720F0A21BB30BB5
:10381000E40BF50B661F771F881F991F1A9469F731
:1038200060957095809590959B01AC01BD01CF018D
:103830000895A29FB001B39FC001A39F700D811D89
:103840001124911DB29F700D811D1124911D0895A9
:103850005058BB27AA270E94401C0C948B1B0E9427
:103860007D1B38F00E94841B20F039F49F3F19F42F
:1038700026F40C947A1B0EF4E095E7FB0C94741B71
:10388000E92F0E949C1B58F3BA176207730784073D
:10389000950720F079F4A6F50C94BE1B0EF4E09584
:1038A0000B2EBA2FA02D0B01B90190010C01CA01FA
:1038B000A0011124FF27591B99F0593F50F4503EA5
:1038C00068F11A16F040A22F232F342F4427585F97
:1038D000F3CF469537952795A795F0405395C9F7AF
:1038E0007EF41F16BA0B620B730B840BBAF0915067
:1038F000A1F0FF0FBB1F661F771F881FC2F70EC006
:10390000BA0F621F731F841F48F4879577956795D8
:10391000B795F7959E3F08F0B0CF9395880F08F0C4
:103920009927EE0F9795879508950E94A91C0C94EE
:103930008B1B0E94841B58F00E947D1B40F029F4D1
:103940005F3F29F00C94741B51110C94BF1B0C9415
:103950007A1B0E949C1B68F39923B1F3552391F3C2
:10396000951B550BBB27AA2762177307840738F0EE
:103970009F5F5F4F220F331F441FAA1FA9F335D04B
:103980000E2E3AF0E0E832D091505040E695001CFF
:10399000CAF72BD0FE2F29D0660F771F881FBB1FB9
:1039A000261737074807AB07B0E809F0BB0B802D97
:1039B000BF01FF2793585F4F3AF09E3F510578F0C3
:1039C0000C94741B0C94BF1B5F3FE4F3983ED4F33C
:1039D000869577956795B795F7959F5FC9F7880F97
:1039E000911D9695879597F90895E1E0660F771FE9
:1039F000881FBB1F621773078407BA0720F0621B7A
:103A0000730B840BBA0BEE1F88F7E09508950E94A4
:103A10000E1D6894B1110C94BF1B08950E94A41B45
:103A200088F09F5798F0B92F9927B751B0F0E1F07F
:103A3000660F771F881F991F1AF0BA95C9F714C02F
:103A4000B13091F00E94BE1BB1E008950C94BE1BF2
:103A5000672F782F8827B85F39F0B93FCCF3869568
:103A600077956795B395D9F73EF4909580957095C5
:103A700061957F4F8F4F9F4F08950E94E31A08F47E
:103A80008FEF08950E94E31A880B990B0895991BF4
:103A900079E004C0991F961708F0961B881F7A9545
:103AA000C9F78095089597FB072E16F4009407D068
:103AB00077FD09D00E946F1D07FC05D03EF490955C
:103AC00081959F4F0895709561957F4F0895EE0FF2
:103AD000FF1F881F8BBF0790F691E02D1994AA1B3A
:103AE000BB1B51E107C0AA1FBB1FA617B70710F0E9
:103AF000A61BB70B881F991F5A95A9F7809590951B
:103B0000BC01CD010895CF93DF938230910510F46D
:103B100082E090E0E0910005F091010520E030E0C6
:103B2000C0E0D0E0309711F140815181481759072A
:103B3000C0F04817590761F482819381209719F0EA
:103B40009B838A832BC0909301058093000526C038
:103B50002115310519F04217530718F49A01BE01D7
:103B6000DF01EF010280F381E02DDCCF211531056B
:103B700009F1281B390B2430310590F412968D91F0
:103B80009C9113976115710521F0FB01938382834A
:103B900004C09093010580930005FD01329644C056
:103BA000FD01E20FF31F81939193225031092D9370
:103BB0003C933AC02091FE043091FF04232B41F442
:103BC00020910402309105023093FF042093FE04FB
:103BD00020910202309103022115310541F42DB7E5
:103BE0003EB74091060250910702241B350BE0912D
:103BF000FE04F091FF04E217F307A0F42E1B3F0B25
:103C00002817390778F0AC014E5F5F4F241735074E
:103C100048F04E0F5F1F5093FF044093FE048193C2
:103C2000919302C0E0E0F0E0CF01DF91CF910895E1
:103C30000F931F93CF93DF93009709F48CC0FC017F
:103C4000329713821282009100051091010501152F
:103C5000110581F420813181820F931F2091FE0490
:103C60003091FF042817390779F5F093FF04E093AA
:103C7000FE0471C0D80140E050E0AE17BF0750F419
:103C800012962D913C911397AD012115310509F143
:103C9000D901F3CF9D01DA013383228360817181E1
:103CA000860F971F8217930769F4EC0128813981E9
:103CB000260F371F2E5F3F4F318320838A819B81E0
:103CC00093838283452B29F4F0930105E09300054B
:103CD00042C01396FC93EE931297ED0149915991CE
:103CE0009E01240F351FE217F30771F48081918143
:103CF000840F951F029611969C938E9382819381D7
:103D000013969C938E931297E0E0F0E0D801129600
:103D10008D919C911397009719F0F8018C01F6CFC3
:103D20008D919C9198012E5F3F4F820F931F2091A0
:103D3000FE043091FF042817390769F4309729F4FD
:103D4000109201051092000502C013821282109396
:103D5000FF040093FE04DF91CF911F910F9108950E
:103D60006F927F928F929F92AF92BF92CF92DF928B
:103D7000EF92FF920F931F93CF93DF93EC01009785
:103D800089F4CB01DF91CF911F910F91FF90EF90BC
:103D9000DF90CF90BF90AF909F908F907F906F906B
:103DA0000C94831DFC01E60FF71F9C012250310982
:103DB000E217F30708F4ACC0D9010D911C911197DB
:103DC00006171707B0F00530110508F49FC0C801A9
:103DD00004978617970708F499C002501109061B2B
:103DE000170B019311936D937C93CF010E94181EC2
:103DF0008DC05B01A01AB10A4C01800E911EA091EA
:103E00000005B091010540E050E0E12CF12C109745
:103E100009F44AC0A815B905D1F56D907C901197A9
:103E2000630182E0C80ED11CCA14DB0480F1A30137
:103E30004A195B096A0182E0C80ED11C1296BC9037
:103E400012971396AC91B5E0CB16D10440F0B28234
:103E5000A38351834083D9016D937C930AC00E5F85
:103E60001F4FC301800F911FF90191838083EB2DB8
:103E7000FA2FE114F10431F0D7011396FC93EE937D
:103E8000129744C0F0930105E09300053FC08D9167
:103E90009C9111974817590708F4AC017D011296BF
:103EA0000D90BC91A02DB3CF8091FE049091FF04A2
:103EB00088159905E1F446175707C8F48091020266
:103EC00090910302009741F48DB79EB7409106028E
:103ED00050910702841B950BE817F907C8F4F0937B
:103EE000FF04E093FE04F901718360830FC0CB01EE
:103EF0000E94831D7C01009759F0A801BE010E9419
:103F00009E1FCE010E94181EC70104C0CE0102C030
:103F100080E090E0DF91CF911F910F91FF90EF90A3
:103F2000DF90CF90BF90AF909F908F907F906F90D9
:103F3000089581E090E0F8940C94B71FFB01DC0138
:103F400002C001900D9241505040D8F70895FB01F6
:103F5000DC018D91019080190110D9F3990B08951E
:103F6000FB01DC0101900D920020E1F7089511E0C2
:103F7000C4EDD1E000E006C0802FFE010E94671D65
:103F80002196011DC53DD10780E00807A9F7F894E7
:023F9000FFCF61
:103F92005A0000000205800000000000C00400007A
:103FA20000007002F60D0802B702390217022B0256
:103FB200000000002B03F60DB9032A037F039703C9
:103FC200120322225C5C6208660C6E0A720D74098E
:103FD20000207B2200223A002C0020220057616937
:103FE20074696E67006D0043757272656E7420416C
:103FF2006E676C653A2000207C2043757272656E94
:104002007420496E74656E736974793A2000207C5D
:104012002043757272656E7420566F6C74616765A9
:104022003A2000506F736974696F6E3A20002D2D2B
:104032002D2D2D2D2D2D2D2D2D2D2D2D2D2D2D2DAE
:104042002D2D2D2D2D2D2D2D2D2D2D2D2D00566F60
:104052006C746167652052656164696E67732E2EA8
:104062002E2E006E616E00696E66006F7666000D20
:104072000A00616E676C6500696E74656E736974BF
:104082007900766F6C746167650074656D70657236
:1040920061747572650068756D6964697479007020
:1040A2006F77657200656E65726779000A7D000040
:00000001FF
